{
  "abi": [
    {
      "inputs": [
        {
          "internalType": "address",
          "name": "i_EthStone_main_addr",
          "type": "address"
        },
        {
          "internalType": "address",
          "name": "player",
          "type": "address"
        },
        {
          "internalType": "address",
          "name": "firsthero",
          "type": "address"
        },
        {
          "internalType": "uint256",
          "name": "account",
          "type": "uint256"
        }
      ],
      "stateMutability": "nonpayable",
      "type": "constructor"
    },
    {
      "inputs": [
        {
          "internalType": "uint256",
          "name": "gold",
          "type": "uint256"
        },
        {
          "internalType": "address",
          "name": "target",
          "type": "address"
        }
      ],
      "name": "buy_pack",
      "outputs": [
        {
          "internalType": "bool",
          "name": "",
          "type": "bool"
        }
      ],
      "stateMutability": "nonpayable",
      "type": "function"
    },
    {
      "inputs": [
        {
          "internalType": "address",
          "name": "target",
          "type": "address"
        }
      ],
      "name": "buy_stuff",
      "outputs": [
        {
          "internalType": "bool",
          "name": "",
          "type": "bool"
        }
      ],
      "stateMutability": "nonpayable",
      "type": "function"
    },
    {
      "inputs": [
        {
          "internalType": "address",
          "name": "force_hero",
          "type": "address"
        }
      ],
      "name": "cheat",
      "outputs": [
        {
          "internalType": "bool",
          "name": "",
          "type": "bool"
        }
      ],
      "stateMutability": "nonpayable",
      "type": "function"
    },
    {
      "inputs": [],
      "name": "owner",
      "outputs": [
        {
          "internalType": "address",
          "name": "",
          "type": "address"
        }
      ],
      "stateMutability": "view",
      "type": "function"
    },
    {
      "inputs": [
        {
          "internalType": "address",
          "name": "target",
          "type": "address"
        }
      ],
      "name": "rent_hero",
      "outputs": [
        {
          "internalType": "bool",
          "name": "",
          "type": "bool"
        }
      ],
      "stateMutability": "nonpayable",
      "type": "function"
    },
    {
      "inputs": [
        {
          "internalType": "address",
          "name": "target",
          "type": "address"
        }
      ],
      "name": "sacrifice_hero",
      "outputs": [
        {
          "internalType": "bool",
          "name": "",
          "type": "bool"
        }
      ],
      "stateMutability": "nonpayable",
      "type": "function"
    },
    {
      "inputs": [
        {
          "internalType": "address",
          "name": "target",
          "type": "address"
        }
      ],
      "name": "sell_hero",
      "outputs": [
        {
          "internalType": "bool",
          "name": "",
          "type": "bool"
        }
      ],
      "stateMutability": "nonpayable",
      "type": "function"
    },
    {
      "inputs": [
        {
          "internalType": "address",
          "name": "target",
          "type": "address"
        }
      ],
      "name": "train_hero",
      "outputs": [
        {
          "internalType": "bool",
          "name": "",
          "type": "bool"
        }
      ],
      "stateMutability": "nonpayable",
      "type": "function"
    }
  ],
  "bytecode": {
    "object": "0x608060405234801561001057600080fd5b5060405161032238038061032283398101604081905261002f916100be565b600180546001600160a01b03199081166001600160a01b0396871617825560069290925560028054918201815560009081527f405787fa12a823e0f2b7631cc41b3ba8828b3321ca811111fa75cd3aa3bb5ace909101805483169386169390931790925581541691909216179055610109565b80516001600160a01b03811681146100b957600080fd5b919050565b600080600080608085870312156100d457600080fd5b6100dd856100a2565b93506100eb602086016100a2565b92506100f9604086016100a2565b6060959095015193969295505050565b61020a806101186000396000f3fe608060405234801561001057600080fd5b50600436106100885760003560e01c80637ee77fdf1161005b5780637ee77fdf146100cc5780638da5cb5b146100df57806397ea383f146100b8578063f3f1634e146100b857600080fd5b806310cb69191461008d5780631981ac36146100b85780631f4745e8146100b85780633ffba59f146100b8575b600080fd5b6100a361009b366004610170565b600192915050565b60405190151581526020015b60405180910390f35b6100a36100c636600461019c565b50600190565b6100a36100da36600461019c565b61010a565b6000546100f2906001600160a01b031681565b6040516001600160a01b0390911681526020016100af565b6000816002600081548110610121576101216101be565b9060005260206000200160006101000a8154816001600160a01b0302191690836001600160a01b03160217905550919050565b80356001600160a01b038116811461016b57600080fd5b919050565b6000806040838503121561018357600080fd5b8235915061019360208401610154565b90509250929050565b6000602082840312156101ae57600080fd5b6101b782610154565b9392505050565b634e487b7160e01b600052603260045260246000fdfea26469706673582212204bbd3de816b605f747c15417f1f015946be35dcec4ff9b3eb14e00d462361e9264736f6c63430008130033",
    "linkReferences": {}
  },
  "methodIdentifiers": {
    "buy_pack(uint256,address)": "10cb6919",
    "buy_stuff(address)": "97ea383f",
    "cheat(address)": "7ee77fdf",
    "owner()": "8da5cb5b",
    "rent_hero(address)": "f3f1634e",
    "sacrifice_hero(address)": "1f4745e8",
    "sell_hero(address)": "3ffba59f",
    "train_hero(address)": "1981ac36"
  },
  "id": 19
}